:020000040800F2
:10000000A8210020C10100084F0900089D05000833
:100010004D090008710400084511000800000000A7
:10002000000000000000000000000000C90A0008F5
:10003000FB04000800000000CD090008A10B000827
:10004000DB010008DB010008DB010008DB01000820
:10005000DB010008DB010008DB010008DB01000810
:10006000DB010008DB010008DB010008DB01000800
:10007000DB010008DB010008DB010008DB010008F0
:10008000DB010008DB010008DB010008DB010008E0
:10009000DB010008DB010008DB010008DB010008D0
:1000A000DB010008DB010008DB010008DB010008C0
:1000B0001D0D0008DB010008DB010008DB01000862
:1000C000DB010008DB010008DB010008DB010008A0
:1000D000DB010008F10D0008FD0D0008DB01000840
:1000E000DB010008DB010008DB010008DB01000880
:1000F000DB010008DB010008DB010008DB01000870
:10010000DB010008DB010008DB010008DB0100085F
:10011000E50D0008DB010008DB010008DB01000839
:10012000DB010008DB010008DB010008DB0100083F
:10013000DB010008DB010008DB010008DB0100082F
:10014000DB010008DB010008DB010008DB0100081F
:10015000DB010008DB010008DB010008DB0100080F
:10016000DB010008DB010008DB010008DB010008FF
:10017000DB010008DB010008DB010008DB010008EF
:10018000DB010008DB010008DB010008DB010008DF
:10019000DB010008DB010008DB010008DB010008CF
:1001A000DB010008DB010008DB010008DFF80CD0F0
:1001B00000F018F80048004749120008A821002064
:1001C0000648804706480047FEE7FEE7FEE7FEE7F1
:1001D000FEE7FEE7FEE7FEE7FEE7FEE7B10C0008FC
:1001E000AD010008064C074D06E0E06840F0010351
:1001F00094E8070098471034AC42F6D3FFF7DAFFD3
:10020000F41200081413000870B50546294800EBE5
:10021000051420688047052205EB45030026A8B396
:100220002179052901D2227170BD0A2902D2491C07
:10023000217170BDA07A05EB45056D1C20B9012028
:10024000A072E8B200F006F921890029F1D0E08817
:1002500088420BD2401C80B2E08021898842E8D1DC
:10026000BDE87040DB1CD8B200F0F4B8E07A00289A
:10027000DFD0207B401CC0B22073E17A8842D8D303
:100280002673E8B2BDE8704000F0E4B82079052894
:1002900001D922710BE010B1401E207107E0A07A55
:1002A000012804D1A6729B1CD8B200F0D3F8E680D6
:1002B000267370BDBC180020074A917AD07A81421B
:1002C00001D100207047505C491CC9B291720A29C3
:1002D000F8D30021917270478C19002010B500F0FE
:1002E00095FC4FF4407000F067FB00F0A5F800F0BB
:1002F00006F800F037FFBDE8104000F09FB810B5D9
:1003000000F048F8BDE81040AFF300807CB5012153
:100310000D2000F05DFB00248DF804408DF80640B0
:100320008DF8074002258DF8055068020090164EA2
:100330006946304600F0E2F8A9020091694630466D
:1003400000F0DCF8E90200916946304600F0D6F88A
:100350008DF8044001268DF807608DF80550FF20C8
:1003600000906946094800F0C9F88DF804408DF8FE
:1003700007608DF805504FF44040009069460448EE
:1003800000F0BCF87CBD0000000802400000024004
:10039000000C024030B51A4800238372C372037305
:1003A00000216424A0F1D002022502EB0110048197
:1003B00005718372C3720373491CC9B20D29F4D34A
:1003C0001048106010481061104810621048106307
:1003D00010481064104810651048106610481067E7
:1003E0001048C2F880001048C2F890000F48C2F8C8
:1003F000A0000F48C2F8B0000E48C2F8C00030BDDF
:100400008C190020CD0700083108000845080008B5
:10041000590800086D0800088108000895080008C0
:10042000A9080008BD080008E1070008F507000852
:10043000090800081D08000800F04ABA00F0C0BE14
:1004400010B500242046FFF7DFFE641CE4B20D2C3B
:10045000F8D310BD0549CA7A8854C87A401CC0B286
:10046000C8720A2801D30020C87270478C19002076
:10047000FEE7000000280BD001280BD002280BD08B
:1004800003280BD004280BD005280BD00020704780
:10049000054870470548704700207047044870477A
:1004A0000020704700207047440000206C080020A6
:1004B0009410002038B525208DF8000000208DF81C
:1004C000020001248DF80340684600F041FA26201E
:1004D0008DF800008DF802408DF80340684600F06A
:1004E00037FA34208DF8000003208DF802008DF8D3
:1004F0000340684600F02CFA38BD70472DE9F04102
:10050000002201274FF0030C07FA02F50B682B407D
:10051000AB422CD1066853000CFA03F4A6430660E4
:100520000E79D0F800809E4046EA080606600E79F3
:10053000012E01D0022E12D18668A64386604E7924
:10054000D0F808809E4046EA080686604668AE43BA
:10055000466045688E799640B6B235434560C568B9
:10056000A543C560CC799C40C3681C43C460521C41
:10057000102AC9D3BDE8F08110B54B07DB0E9A40B5
:10058000C90800EB8100016A0F249C40A14301626D
:10059000016A1143016210BD0183704707A3002067
:1005A00011491A5C8A800A885206FCD5401CC0B2E8
:1005B0002A28F6D300F06EFBFCE700000D0A456E1A
:1005C00074657220486172644661756C745F48613D
:1005D0006E646C65722C2053797374656D2048616C
:1005E0006C742E0D0A000000001001402DE9F04F40
:1005F00087B00121084600F0EBF90121102000F03E
:1006000003FADFF8B491072209214846FFF7B4FF47
:1006100007220A214846FFF7AFFF00248DF81A4051
:1006200001268DF81B6002258DF8185028020590D0
:100630008DF8195005A94846FFF760FF8DF818504E
:100640006802059005A94846FFF758FF4FF4E138C6
:10065000CDF80480ADF80840ADF80A40ADF80C4084
:10066000ADF810400C27ADF80E70DFF850B101A9BD
:10067000584600F015FC40F2255A012251465846D2
:1006800000F0F2FB0121584600F0C2FB4021584621
:1006900000F0BAFB0121082000F09AF9012148047A
:1006A00000F0A4F9DFF818B1072205215846FFF73A
:1006B00063FF072206215846FFF75EFF8DF81A40B8
:1006C0008DF81B608DF81850202005908DF819507A
:1006D00005A95846FFF712FF8DF8185040200590E5
:1006E00005A95846FFF70AFFCDF80480ADF8084089
:1006F000ADF80A40ADF80C40ADF81040ADF80E7002
:10070000DFF8C08001A9404600F0CAFB0122514633
:10071000404600F0A9FB0121404600F079FB402152
:10072000404600F071FB0121084600F051F901211B
:10073000C80400F05BF9082200214846FFF71CFFBF
:10074000082201214846FFF717FF8DF81A408DF85F
:100750001B608DF8185005968DF8195005A948466C
:10076000FFF7CCFE8DF81850059505A94846FFF710
:10077000C5FE4FF416500190ADF80840ADF80A40A0
:10078000ADF80C40ADF81040ADF80E700E4C01A95C
:10079000204600F085FB01225146204600F064FB14
:1007A0000121204600F034FB4021204600F02CFBC4
:1007B00007B0BDE8F08F00000000024000100140CB
:1007C000000C024000440040004C00400348006818
:1007D000400501D4012070470020704710080240F6
:1007E00003480069400601D401207047002070478B
:1007F0000000024003480069000601D40120704750
:10080000002070470000024003480068400401D403
:100810000120704700207047100C02400348006818
:10082000000401D40120704700207047100C0240E2
:1008300003480068000501D401207047002070477C
:100840001008024003480068C00401D4012070472A
:10085000002070471008024003480069C00701D01B
:1008600000207047012070470000024003480069E3
:10087000800701D40120704700207047000002402B
:1008800003480069400701D40120704700207047E9
:100890000000024003480069000701D401207047AE
:1008A000002070470000024003480069C00601D4E0
:1008B0000120704700207047000002400348006993
:1008C000800601D4012070470020704700000240DC
:1008D0002DE9FC410121102000F07AF801208DF86B
:1008E000040000218DF806108DF807008DF8051022
:1008F00007030097DFF8508069464046FFF7FEFD8A
:100900007C00009469464046FFF7F8FD65000095BD
:1009100069464046FFF7F2FDA6000096694640464C
:10092000FFF7ECFD39464046FFF736FE21464046CC
:10093000FFF732FE29464046FFF72EFE314640467D
:10094000FFF72AFEBDE8FC8100100240FEE7704779
:1009500030B50F23C27801250178002A1FD0154A2F
:10096000126802F4E062C2F5E062C2F30722C2F14B
:100970000404D3404278A24084781C4014432201EE
:1009800001F1E02181F80024007800F01F018D4082
:100990004009800000F1E020C0F8005130BD01F0B6
:1009A0001F0085404809800000F1E020C0F8805118
:1009B00030BD00000CED00E0024908430249086028
:1009C000704700000000FA050CED00E070470000E1
:1009D000054A002903D0116801431160704711686E
:1009E000814311607047000030380240054A0029F9
:1009F00003D0116801431160704711688143116091
:100A00007047000040380240054A002903D01168B1
:100A10000143116070471168814311607047000005
:100A20004438024070B5244B196801F00C01234C86
:100A300000291ED0224E04291DD008291DD0046093
:100A4000196801F0F00109091E4A545C0168E1408F
:100A500041601C6804F4E054A40A145D21FA04F413
:100A600084601B6803F460435B0BD25CD140C160BF
:100A700070BD0460E4E70660E2E70F4A121F1168E8
:100A8000C1F38055116801F03F0135B1B6FBF1F1BA
:100A90001468C4F38814614305E0B4FBF1F11468F1
:100AA000C4F3881461431268C2F30142521C52001D
:100AB000B1FBF2F10160C3E7083802400024F40002
:100AC00040787D0120000020704700001CB5002107
:100AD000019100912E4A106840F4803010604FF46C
:100AE000A043106800F4003000900198401C019071
:100AF000009810B901989842F3D11068800302D58C
:100B00000120009000E00091009801283FD120488A
:100B10004030016841F0805101601E49086840F48E
:100B2000404008601A48083003680360036843F4D3
:100B300000430360036843F4A0530360041F164B93
:100B40002360136843F08073136013689B01FCD526
:100B50000A6842F480320A604A68D203FCD50A6807
:100B600042F400320A604A689203FCD50B4A40F214
:100B700005711160016821F003010160016841F015
:100B8000020101600168C1F381010229FAD11CBD93
:100B90000038024000700040195A4007003C0240F3
:100BA000AFF3008070B5174E7068002805D07068EC
:100BB000401E706001D1012030700024124D04EB02
:100BC000440005EB800000F017FB641CE4B2002C2D
:100BD000F5D0B068401CB060B0686FF000410024F0
:100BE000884200D1B46000F0F7FA7078401CC0B2BF
:100BF00070700A2804D37470BDE8704000F0E9BA40
:100C000070BD0000040000209C19002070B51D4E2E
:100C1000306800F00C001C4B1C4900280FD01C4D04
:100C200004280ED008280ED00B603068174AC0F395
:100C30000310121D105C0A68C2400A6070BD0B6090
:100C4000F3E70D60F1E70F4A121F1068C0F38054FC
:100C5000106800F03F0034B1B5FBF0F01368C3F347
:100C60008813584305E0B3FBF0F01368C3F388130F
:100C700058431268C2F30142521C5200B0FBF2F01A
:100C80000860D2E7083802400024F4003000002059
:100C900040787D0105484FF48051418349004183EC
:100CA0004900418349004183704700000010024021
:100CB00010B51248016841F47001016010480168E4
:100CC00041F0010101600E4A002108321160026802
:100CD0000C4B1A400260031D0B4A1A60026822F492
:100CE0008022026006480C300160FFF7EFFE0349E6
:100CF0004FF000608039086010BD000088ED00E012
:100D000000380240FFFFF6FE10300024024841691F
:100D100081F40041416170470010024070B502212A
:100D20004D07284600F047F8204C50B102212846D4
:100D300000F03EF800220221284600F048F8E06862
:100D400080470421284600F036F850B10421284697
:100D500000F02EF800220421284600F038F820691F
:100D600080470821284600F026F850B1082128467F
:100D700000F01EF800220821284600F028F86069DB
:100D800080471021284600F016F800280CD01021CA
:100D9000284600F00DF800221021284600F017F830
:100DA000A069BDE87040004770BD0000040000204D
:100DB000C9430182704702460020138A0B40928982
:100DC0000A40002B02D0002A00D001207047002AE0
:100DD00003D082890A438281704782898A43828153
:100DE00070470000014800F0C1B8000094100020D6
:100DF000014800F0BBB8000044000020014800F0AA
:100E0000B5B800006C0800208A05C943018070470E
:100E1000002904D0818941F4005181817047818982
:100E200021F400518181704770B5002440F66A12A8
:100E3000C1F3421301F01F05012606FA05F2012B4A
:100E40000CD0022B0DD0838A1340090A8E400088F3
:100E500030400BB100B10124204670BD838913409E
:100E6000F3E7038A1340F0E710B540F66A13C1F3C5
:100E7000421301F01F040121A140012B07D0022BD6
:100E800007D014303AB102680A43026010BD0C303A
:100E9000F8E71030F6E702688A43026010BD0000F0
:100EA0007FB504460D46208A20F44051E888084367
:100EB0002082A08941F20C618843A9882A891143C4
:100EC0006A8902431143A181A08A20F44071A88954
:100ED0000843A0826846FFF7A5FD1E48844202D061
:100EE0001D48844201D1039800E00298A1890904B9
:100EF00008D500EBC00101EB001029684900B0FBE8
:100F0000F1F007E000EBC00101EB00102968890057
:100F1000B0FBF1F06422B0FBF2F109010B096FF0B4
:100F200018056B4300EB8300A3891D044FF03203C7
:100F300007D503EBC000B0FBF2F000F00700084358
:100F400006E003EB0010B0FBF2F000F00F000843E6
:100F500020817FBD00100140001401408088C0F353
:100F600008007047C1F30801818070472DE9F04106
:100F7000044640F225512068FFF756FF0025B8B11E
:100F80002068FFF7EBFFC0B2E28AA1688854E18ACB
:100F9000491C8AB2E282E1898A4200D3E582628BEF
:100FA0008A4202D2618B491C6183616A01B1884720
:100FB00040F2277739462068FFF736FF40F2266671
:100FC00000B3A08A90B1618A6068415C2068FFF735
:100FD000C9FF608A401C80B26082A189884200D328
:100FE0006582A08A401EA082BDE8F08100223946B9
:100FF0002068FFF739FF31462068BDE8F041012243
:10100000FFF732BF31462068FFF70EFF0028EBD014
:10101000A08A88B1618A6068415C2068FFF7A2FFFE
:10102000608A401C80B26082A189884200D36582B8
:10103000A08A401EA082D7E7002231462068FFF731
:1010400013FF206A0028CFD0BDE8F041004778B4F4
:10105000002324E08589012484F31088848A009485
:10106000002484F31088BDF80040A542F3D9CC5C7D
:10107000068A4568AC55012484F31088048A641CF0
:10108000A4B204828589AC4201D300240482848AFC
:10109000641C8482002484F310885B1C9BB29342FE
:1010A000D8D3006878BC012240F22771FFF7DCBE7C
:1010B00021492048086001F12800486000F580605F
:1010C00088604FF480628A81CA8100200882488249
:1010D000C882088348838882C8610862486201F632
:1010E0002801164B0B6001F128034B6001F5856365
:1010F0008B608A81CA8108824882C88208834883BB
:101100008882C8610862486201F628010C4B0B60B6
:1011100001F128034B6001F585638B608A81CA81E8
:1011200008824882C882088348838882C86108622E
:101130004862704700100140440000200044004015
:10114000004C0040FEE702E008C8121F08C1002A58
:10115000FAD170477047002001E001C1121F002A38
:10116000FBD1704710B50020124B002400EB400269
:1011700003EB82014C608C604C7003F82240401CF1
:10118000C0B20028F2D0FFF741FD0B484FF47A714E
:101190000068B0FBF1F0401EB0F1807F08D24FF044
:1011A000E0214861054AF02010708C610720086139
:1011B00010BD00009C1900203000002023ED00E04D
:1011C00010B5FFF775FFFFF711FABDE81040FFF704
:1011D00071B9FFF735B9000010B5064C2088401CE6
:1011E00080B22080B0F5FA7F03D1FFF78FFD002099
:1011F000208010BD00000020416800290AD041680D
:10120000491E416006D1012141700178012901D1B7
:1012100081684160704770B50D461646FFF72AF9A0
:101220000446002C09D0E06900B1804732462946C7
:101230002046BDE87040FFF70ABF70BD13B501221C
:1012400001A9FFF7E8FF1CBDFFF748F8FFF734F8E6
:101250000028FBD0102839D014DC07282CD008DC5B
:10126000012824D00428F1D162210020FFF7E6FFF5
:10127000ECE70A2825D00D28E8D165210020FFF7EA
:10128000DDFFE3E71F282BD008DC192823D01C281A
:10129000DCD168210020FFF7D1FFD7E7222824D036
:1012A0002528D3D16B210020FFF7C8FFCEE76121AD
:1012B0000020FFF7C3FFC9E763210020FFF7BEFF4F
:1012C000C4E764210020FFF7B9FFBFE766210020D3
:1012D000FFF7B4FFBAE767210020FFF7AFFFB5E7DC
:1012E00069210020FFF7AAFFB0E76A210020FFF77D
:1012F000A5FFABE714130008000000204400000025
:101300004611000858130008440000206421000022
:10131000561100080000000000000000000000005E
:1013200000000000000000000000000000000000BD
:101330000000000000000000010203040102030499
:10134000060708090095BA0A000000000000000026
:0813500001020304060708096D
:04000005080001AD41
:00000001FF
